//0xF8638202E282271082520894000000000035B5E5AD9019092C665357240F594E0A801BA0C31F21E3292C85D479031A8779D8578D0E81DB1AEBDCD2C58826EA07B553AB6BA05814DD8367849471B01CC58E12C2F7942D3445BC3E4F18C9791D933ABB3DB4F5
{
  "nonce": 738,
  "gasPrice": {
    "type": "BigNumber",
    "hex": "0x2710"
  },
  "gasLimit": {
    "type": "BigNumber",
    "hex": "0x5208"
  },
  "to": "0x000000000035B5e5ad9019092C665357240f594e",
  "value": {
    "type": "BigNumber",
    "hex": "0x0a"
  },
  "data": "0x",
  "chainId": 0,
  "v": 27,
  "r": "0xc31f21e3292c85d479031a8779d8578d0e81db1aebdcd2c58826ea07b553ab6b",
  "s": "0x5814dd8367849471b01cc58e12c2f7942d3445bc3e4f18c9791d933abb3db4f5",
  "from": "0x51c50Fe7392F8D3D570A8068314c4331ECbC8b52",
  "hash": "0x9ed7da7ab6489413257c40d8a209db654981770b184acf098badd75816efd5ca",
  "type": null
}